{
  "contractName": "RethinkFundGovernor",
  "abi": [
    {
      "inputs": [],
      "stateMutability": "nonpayable",
      "type": "constructor"
    },
    {
      "inputs": [],
      "name": "Empty",
      "type": "error"
    },
    {
      "anonymous": false,
      "inputs": [],
      "name": "EIP712DomainChanged",
      "type": "event"
    },
    {
      "anonymous": false,
      "inputs": [
        {
          "indexed": false,
          "internalType": "uint8",
          "name": "version",
          "type": "uint8"
        }
      ],
      "name": "Initialized",
      "type": "event"
    },
    {
      "anonymous": false,
      "inputs": [
        {
          "indexed": false,
          "internalType": "uint64",
          "name": "oldVoteExtension",
          "type": "uint64"
        },
        {
          "indexed": false,
          "internalType": "uint64",
          "name": "newVoteExtension",
          "type": "uint64"
        }
      ],
      "name": "LateQuorumVoteExtensionSet",
      "type": "event"
    },
    {
      "anonymous": false,
      "inputs": [
        {
          "indexed": false,
          "internalType": "uint256",
          "name": "proposalId",
          "type": "uint256"
        }
      ],
      "name": "ProposalCanceled",
      "type": "event"
    },
    {
      "anonymous": false,
      "inputs": [
        {
          "indexed": false,
          "internalType": "uint256",
          "name": "proposalId",
          "type": "uint256"
        },
        {
          "indexed": false,
          "internalType": "address",
          "name": "proposer",
          "type": "address"
        },
        {
          "indexed": false,
          "internalType": "address[]",
          "name": "targets",
          "type": "address[]"
        },
        {
          "indexed": false,
          "internalType": "uint256[]",
          "name": "values",
          "type": "uint256[]"
        },
        {
          "indexed": false,
          "internalType": "string[]",
          "name": "signatures",
          "type": "string[]"
        },
        {
          "indexed": false,
          "internalType": "bytes[]",
          "name": "calldatas",
          "type": "bytes[]"
        },
        {
          "indexed": false,
          "internalType": "uint256",
          "name": "voteStart",
          "type": "uint256"
        },
        {
          "indexed": false,
          "internalType": "uint256",
          "name": "voteEnd",
          "type": "uint256"
        },
        {
          "indexed": false,
          "internalType": "string",
          "name": "description",
          "type": "string"
        }
      ],
      "name": "ProposalCreated",
      "type": "event"
    },
    {
      "anonymous": false,
      "inputs": [
        {
          "indexed": false,
          "internalType": "uint256",
          "name": "proposalId",
          "type": "uint256"
        }
      ],
      "name": "ProposalExecuted",
      "type": "event"
    },
    {
      "anonymous": false,
      "inputs": [
        {
          "indexed": true,
          "internalType": "uint256",
          "name": "proposalId",
          "type": "uint256"
        },
        {
          "indexed": false,
          "internalType": "uint64",
          "name": "extendedDeadline",
          "type": "uint64"
        }
      ],
      "name": "ProposalExtended",
      "type": "event"
    },
    {
      "anonymous": false,
      "inputs": [
        {
          "indexed": false,
          "internalType": "uint256",
          "name": "oldQuorumNumerator",
          "type": "uint256"
        },
        {
          "indexed": false,
          "internalType": "uint256",
          "name": "newQuorumNumerator",
          "type": "uint256"
        }
      ],
      "name": "QuorumNumeratorUpdated",
      "type": "event"
    },
    {
      "anonymous": false,
      "inputs": [
        {
          "indexed": true,
          "internalType": "address",
          "name": "voter",
          "type": "address"
        },
        {
          "indexed": false,
          "internalType": "uint256",
          "name": "proposalId",
          "type": "uint256"
        },
        {
          "indexed": false,
          "internalType": "uint8",
          "name": "support",
          "type": "uint8"
        },
        {
          "indexed": false,
          "internalType": "uint256",
          "name": "weight",
          "type": "uint256"
        },
        {
          "indexed": false,
          "internalType": "string",
          "name": "reason",
          "type": "string"
        }
      ],
      "name": "VoteCast",
      "type": "event"
    },
    {
      "anonymous": false,
      "inputs": [
        {
          "indexed": true,
          "internalType": "address",
          "name": "voter",
          "type": "address"
        },
        {
          "indexed": false,
          "internalType": "uint256",
          "name": "proposalId",
          "type": "uint256"
        },
        {
          "indexed": false,
          "internalType": "uint8",
          "name": "support",
          "type": "uint8"
        },
        {
          "indexed": false,
          "internalType": "uint256",
          "name": "weight",
          "type": "uint256"
        },
        {
          "indexed": false,
          "internalType": "string",
          "name": "reason",
          "type": "string"
        },
        {
          "indexed": false,
          "internalType": "bytes",
          "name": "params",
          "type": "bytes"
        }
      ],
      "name": "VoteCastWithParams",
      "type": "event"
    },
    {
      "inputs": [],
      "name": "BALLOT_TYPEHASH",
      "outputs": [
        {
          "internalType": "bytes32",
          "name": "",
          "type": "bytes32"
        }
      ],
      "stateMutability": "view",
      "type": "function"
    },
    {
      "inputs": [],
      "name": "CLOCK_MODE",
      "outputs": [
        {
          "internalType": "string",
          "name": "",
          "type": "string"
        }
      ],
      "stateMutability": "view",
      "type": "function"
    },
    {
      "inputs": [],
      "name": "COUNTING_MODE",
      "outputs": [
        {
          "internalType": "string",
          "name": "",
          "type": "string"
        }
      ],
      "stateMutability": "pure",
      "type": "function"
    },
    {
      "inputs": [],
      "name": "EXTENDED_BALLOT_TYPEHASH",
      "outputs": [
        {
          "internalType": "bytes32",
          "name": "",
          "type": "bytes32"
        }
      ],
      "stateMutability": "view",
      "type": "function"
    },
    {
      "inputs": [
        {
          "internalType": "address[]",
          "name": "targets",
          "type": "address[]"
        },
        {
          "internalType": "uint256[]",
          "name": "values",
          "type": "uint256[]"
        },
        {
          "internalType": "bytes[]",
          "name": "calldatas",
          "type": "bytes[]"
        },
        {
          "internalType": "bytes32",
          "name": "descriptionHash",
          "type": "bytes32"
        }
      ],
      "name": "cancel",
      "outputs": [
        {
          "internalType": "uint256",
          "name": "",
          "type": "uint256"
        }
      ],
      "stateMutability": "nonpayable",
      "type": "function"
    },
    {
      "inputs": [
        {
          "internalType": "uint256",
          "name": "proposalId",
          "type": "uint256"
        },
        {
          "internalType": "uint8",
          "name": "support",
          "type": "uint8"
        }
      ],
      "name": "castVote",
      "outputs": [
        {
          "internalType": "uint256",
          "name": "",
          "type": "uint256"
        }
      ],
      "stateMutability": "nonpayable",
      "type": "function"
    },
    {
      "inputs": [
        {
          "internalType": "uint256",
          "name": "proposalId",
          "type": "uint256"
        },
        {
          "internalType": "uint8",
          "name": "support",
          "type": "uint8"
        },
        {
          "internalType": "uint8",
          "name": "v",
          "type": "uint8"
        },
        {
          "internalType": "bytes32",
          "name": "r",
          "type": "bytes32"
        },
        {
          "internalType": "bytes32",
          "name": "s",
          "type": "bytes32"
        }
      ],
      "name": "castVoteBySig",
      "outputs": [
        {
          "internalType": "uint256",
          "name": "",
          "type": "uint256"
        }
      ],
      "stateMutability": "nonpayable",
      "type": "function"
    },
    {
      "inputs": [
        {
          "internalType": "uint256",
          "name": "proposalId",
          "type": "uint256"
        },
        {
          "internalType": "uint8",
          "name": "support",
          "type": "uint8"
        },
        {
          "internalType": "string",
          "name": "reason",
          "type": "string"
        }
      ],
      "name": "castVoteWithReason",
      "outputs": [
        {
          "internalType": "uint256",
          "name": "",
          "type": "uint256"
        }
      ],
      "stateMutability": "nonpayable",
      "type": "function"
    },
    {
      "inputs": [
        {
          "internalType": "uint256",
          "name": "proposalId",
          "type": "uint256"
        },
        {
          "internalType": "uint8",
          "name": "support",
          "type": "uint8"
        },
        {
          "internalType": "string",
          "name": "reason",
          "type": "string"
        },
        {
          "internalType": "bytes",
          "name": "params",
          "type": "bytes"
        }
      ],
      "name": "castVoteWithReasonAndParams",
      "outputs": [
        {
          "internalType": "uint256",
          "name": "",
          "type": "uint256"
        }
      ],
      "stateMutability": "nonpayable",
      "type": "function"
    },
    {
      "inputs": [
        {
          "internalType": "uint256",
          "name": "proposalId",
          "type": "uint256"
        },
        {
          "internalType": "uint8",
          "name": "support",
          "type": "uint8"
        },
        {
          "internalType": "string",
          "name": "reason",
          "type": "string"
        },
        {
          "internalType": "bytes",
          "name": "params",
          "type": "bytes"
        },
        {
          "internalType": "uint8",
          "name": "v",
          "type": "uint8"
        },
        {
          "internalType": "bytes32",
          "name": "r",
          "type": "bytes32"
        },
        {
          "internalType": "bytes32",
          "name": "s",
          "type": "bytes32"
        }
      ],
      "name": "castVoteWithReasonAndParamsBySig",
      "outputs": [
        {
          "internalType": "uint256",
          "name": "",
          "type": "uint256"
        }
      ],
      "stateMutability": "nonpayable",
      "type": "function"
    },
    {
      "inputs": [],
      "name": "clock",
      "outputs": [
        {
          "internalType": "uint48",
          "name": "",
          "type": "uint48"
        }
      ],
      "stateMutability": "view",
      "type": "function"
    },
    {
      "inputs": [],
      "name": "eip712Domain",
      "outputs": [
        {
          "internalType": "bytes1",
          "name": "fields",
          "type": "bytes1"
        },
        {
          "internalType": "string",
          "name": "name",
          "type": "string"
        },
        {
          "internalType": "string",
          "name": "version",
          "type": "string"
        },
        {
          "internalType": "uint256",
          "name": "chainId",
          "type": "uint256"
        },
        {
          "internalType": "address",
          "name": "verifyingContract",
          "type": "address"
        },
        {
          "internalType": "bytes32",
          "name": "salt",
          "type": "bytes32"
        },
        {
          "internalType": "uint256[]",
          "name": "extensions",
          "type": "uint256[]"
        }
      ],
      "stateMutability": "view",
      "type": "function"
    },
    {
      "inputs": [
        {
          "internalType": "address[]",
          "name": "targets",
          "type": "address[]"
        },
        {
          "internalType": "uint256[]",
          "name": "values",
          "type": "uint256[]"
        },
        {
          "internalType": "bytes[]",
          "name": "calldatas",
          "type": "bytes[]"
        },
        {
          "internalType": "bytes32",
          "name": "descriptionHash",
          "type": "bytes32"
        }
      ],
      "name": "execute",
      "outputs": [
        {
          "internalType": "uint256",
          "name": "",
          "type": "uint256"
        }
      ],
      "stateMutability": "payable",
      "type": "function"
    },
    {
      "inputs": [
        {
          "internalType": "address",
          "name": "account",
          "type": "address"
        },
        {
          "internalType": "uint256",
          "name": "timepoint",
          "type": "uint256"
        }
      ],
      "name": "getVotes",
      "outputs": [
        {
          "internalType": "uint256",
          "name": "",
          "type": "uint256"
        }
      ],
      "stateMutability": "view",
      "type": "function"
    },
    {
      "inputs": [
        {
          "internalType": "address",
          "name": "account",
          "type": "address"
        },
        {
          "internalType": "uint256",
          "name": "timepoint",
          "type": "uint256"
        },
        {
          "internalType": "bytes",
          "name": "params",
          "type": "bytes"
        }
      ],
      "name": "getVotesWithParams",
      "outputs": [
        {
          "internalType": "uint256",
          "name": "",
          "type": "uint256"
        }
      ],
      "stateMutability": "view",
      "type": "function"
    },
    {
      "inputs": [
        {
          "internalType": "uint256",
          "name": "proposalId",
          "type": "uint256"
        },
        {
          "internalType": "address",
          "name": "account",
          "type": "address"
        }
      ],
      "name": "hasVoted",
      "outputs": [
        {
          "internalType": "bool",
          "name": "",
          "type": "bool"
        }
      ],
      "stateMutability": "view",
      "type": "function"
    },
    {
      "inputs": [
        {
          "internalType": "address[]",
          "name": "targets",
          "type": "address[]"
        },
        {
          "internalType": "uint256[]",
          "name": "values",
          "type": "uint256[]"
        },
        {
          "internalType": "bytes[]",
          "name": "calldatas",
          "type": "bytes[]"
        },
        {
          "internalType": "bytes32",
          "name": "descriptionHash",
          "type": "bytes32"
        }
      ],
      "name": "hashProposal",
      "outputs": [
        {
          "internalType": "uint256",
          "name": "",
          "type": "uint256"
        }
      ],
      "stateMutability": "pure",
      "type": "function"
    },
    {
      "inputs": [],
      "name": "lateQuorumVoteExtension",
      "outputs": [
        {
          "internalType": "uint64",
          "name": "",
          "type": "uint64"
        }
      ],
      "stateMutability": "view",
      "type": "function"
    },
    {
      "inputs": [],
      "name": "name",
      "outputs": [
        {
          "internalType": "string",
          "name": "",
          "type": "string"
        }
      ],
      "stateMutability": "view",
      "type": "function"
    },
    {
      "inputs": [
        {
          "internalType": "address",
          "name": "",
          "type": "address"
        },
        {
          "internalType": "address",
          "name": "",
          "type": "address"
        },
        {
          "internalType": "uint256[]",
          "name": "",
          "type": "uint256[]"
        },
        {
          "internalType": "uint256[]",
          "name": "",
          "type": "uint256[]"
        },
        {
          "internalType": "bytes",
          "name": "",
          "type": "bytes"
        }
      ],
      "name": "onERC1155BatchReceived",
      "outputs": [
        {
          "internalType": "bytes4",
          "name": "",
          "type": "bytes4"
        }
      ],
      "stateMutability": "nonpayable",
      "type": "function"
    },
    {
      "inputs": [
        {
          "internalType": "address",
          "name": "",
          "type": "address"
        },
        {
          "internalType": "address",
          "name": "",
          "type": "address"
        },
        {
          "internalType": "uint256",
          "name": "",
          "type": "uint256"
        },
        {
          "internalType": "uint256",
          "name": "",
          "type": "uint256"
        },
        {
          "internalType": "bytes",
          "name": "",
          "type": "bytes"
        }
      ],
      "name": "onERC1155Received",
      "outputs": [
        {
          "internalType": "bytes4",
          "name": "",
          "type": "bytes4"
        }
      ],
      "stateMutability": "nonpayable",
      "type": "function"
    },
    {
      "inputs": [
        {
          "internalType": "address",
          "name": "",
          "type": "address"
        },
        {
          "internalType": "address",
          "name": "",
          "type": "address"
        },
        {
          "internalType": "uint256",
          "name": "",
          "type": "uint256"
        },
        {
          "internalType": "bytes",
          "name": "",
          "type": "bytes"
        }
      ],
      "name": "onERC721Received",
      "outputs": [
        {
          "internalType": "bytes4",
          "name": "",
          "type": "bytes4"
        }
      ],
      "stateMutability": "nonpayable",
      "type": "function"
    },
    {
      "inputs": [
        {
          "internalType": "uint256",
          "name": "proposalId",
          "type": "uint256"
        }
      ],
      "name": "proposalProposer",
      "outputs": [
        {
          "internalType": "address",
          "name": "",
          "type": "address"
        }
      ],
      "stateMutability": "view",
      "type": "function"
    },
    {
      "inputs": [
        {
          "internalType": "uint256",
          "name": "proposalId",
          "type": "uint256"
        }
      ],
      "name": "proposalSnapshot",
      "outputs": [
        {
          "internalType": "uint256",
          "name": "",
          "type": "uint256"
        }
      ],
      "stateMutability": "view",
      "type": "function"
    },
    {
      "inputs": [
        {
          "internalType": "uint256",
          "name": "proposalId",
          "type": "uint256"
        }
      ],
      "name": "proposalVotes",
      "outputs": [
        {
          "internalType": "uint256",
          "name": "againstVotes",
          "type": "uint256"
        },
        {
          "internalType": "uint256",
          "name": "forVotes",
          "type": "uint256"
        },
        {
          "internalType": "uint256",
          "name": "abstainVotes",
          "type": "uint256"
        }
      ],
      "stateMutability": "view",
      "type": "function"
    },
    {
      "inputs": [
        {
          "internalType": "address[]",
          "name": "targets",
          "type": "address[]"
        },
        {
          "internalType": "uint256[]",
          "name": "values",
          "type": "uint256[]"
        },
        {
          "internalType": "bytes[]",
          "name": "calldatas",
          "type": "bytes[]"
        },
        {
          "internalType": "string",
          "name": "description",
          "type": "string"
        }
      ],
      "name": "propose",
      "outputs": [
        {
          "internalType": "uint256",
          "name": "",
          "type": "uint256"
        }
      ],
      "stateMutability": "nonpayable",
      "type": "function"
    },
    {
      "inputs": [
        {
          "internalType": "uint256",
          "name": "timepoint",
          "type": "uint256"
        }
      ],
      "name": "quorum",
      "outputs": [
        {
          "internalType": "uint256",
          "name": "",
          "type": "uint256"
        }
      ],
      "stateMutability": "view",
      "type": "function"
    },
    {
      "inputs": [],
      "name": "quorumDenominator",
      "outputs": [
        {
          "internalType": "uint256",
          "name": "",
          "type": "uint256"
        }
      ],
      "stateMutability": "view",
      "type": "function"
    },
    {
      "inputs": [
        {
          "internalType": "uint256",
          "name": "timepoint",
          "type": "uint256"
        }
      ],
      "name": "quorumNumerator",
      "outputs": [
        {
          "internalType": "uint256",
          "name": "",
          "type": "uint256"
        }
      ],
      "stateMutability": "view",
      "type": "function"
    },
    {
      "inputs": [],
      "name": "quorumNumerator",
      "outputs": [
        {
          "internalType": "uint256",
          "name": "",
          "type": "uint256"
        }
      ],
      "stateMutability": "view",
      "type": "function"
    },
    {
      "inputs": [
        {
          "internalType": "address",
          "name": "target",
          "type": "address"
        },
        {
          "internalType": "uint256",
          "name": "value",
          "type": "uint256"
        },
        {
          "internalType": "bytes",
          "name": "data",
          "type": "bytes"
        }
      ],
      "name": "relay",
      "outputs": [],
      "stateMutability": "payable",
      "type": "function"
    },
    {
      "inputs": [
        {
          "internalType": "uint64",
          "name": "newVoteExtension",
          "type": "uint64"
        }
      ],
      "name": "setLateQuorumVoteExtension",
      "outputs": [],
      "stateMutability": "nonpayable",
      "type": "function"
    },
    {
      "inputs": [],
      "name": "token",
      "outputs": [
        {
          "internalType": "contract IERC5805Upgradeable",
          "name": "",
          "type": "address"
        }
      ],
      "stateMutability": "view",
      "type": "function"
    },
    {
      "inputs": [
        {
          "internalType": "uint256",
          "name": "newQuorumNumerator",
          "type": "uint256"
        }
      ],
      "name": "updateQuorumNumerator",
      "outputs": [],
      "stateMutability": "nonpayable",
      "type": "function"
    },
    {
      "inputs": [],
      "name": "version",
      "outputs": [
        {
          "internalType": "string",
          "name": "",
          "type": "string"
        }
      ],
      "stateMutability": "view",
      "type": "function"
    },
    {
      "stateMutability": "payable",
      "type": "receive"
    },
    {
      "inputs": [
        {
          "internalType": "contract IVotesUpgradeable",
          "name": "_token",
          "type": "address"
        },
        {
          "internalType": "string",
          "name": "_govName",
          "type": "string"
        },
        {
          "internalType": "uint256",
          "name": "quorumFraction",
          "type": "uint256"
        },
        {
          "internalType": "uint256",
          "name": "lateQuorum",
          "type": "uint256"
        },
        {
          "internalType": "uint256",
          "name": "vDelay",
          "type": "uint256"
        },
        {
          "internalType": "uint256",
          "name": "vPeriod",
          "type": "uint256"
        },
        {
          "internalType": "uint256",
          "name": "proposalThreshold",
          "type": "uint256"
        }
      ],
      "name": "initialize",
      "outputs": [],
      "stateMutability": "nonpayable",
      "type": "function"
    },
    {
      "inputs": [],
      "name": "proposalThreshold",
      "outputs": [
        {
          "internalType": "uint256",
          "name": "",
          "type": "uint256"
        }
      ],
      "stateMutability": "view",
      "type": "function"
    },
    {
      "inputs": [],
      "name": "votingDelay",
      "outputs": [
        {
          "internalType": "uint256",
          "name": "",
          "type": "uint256"
        }
      ],
      "stateMutability": "view",
      "type": "function"
    },
    {
      "inputs": [],
      "name": "votingPeriod",
      "outputs": [
        {
          "internalType": "uint256",
          "name": "",
          "type": "uint256"
        }
      ],
      "stateMutability": "view",
      "type": "function"
    },
    {
      "inputs": [
        {
          "internalType": "uint256",
          "name": "proposalId",
          "type": "uint256"
        }
      ],
      "name": "proposalDeadline",
      "outputs": [
        {
          "internalType": "uint256",
          "name": "",
          "type": "uint256"
        }
      ],
      "stateMutability": "view",
      "type": "function"
    },
    {
      "inputs": [
        {
          "internalType": "uint256",
          "name": "proposalId",
          "type": "uint256"
        }
      ],
      "name": "state",
      "outputs": [
        {
          "internalType": "enum IGovernorUpgradeable.ProposalState",
          "name": "",
          "type": "uint8"
        }
      ],
      "stateMutability": "view",
      "type": "function"
    },
    {
      "inputs": [
        {
          "internalType": "bytes4",
          "name": "interfaceId",
          "type": "bytes4"
        }
      ],
      "name": "supportsInterface",
      "outputs": [
        {
          "internalType": "bool",
          "name": "",
          "type": "bool"
        }
      ],
      "stateMutability": "view",
      "type": "function"
    }
  ],
  "bytecode": "0x6080604052348015600e575f5ffd5b5060156019565b60d3565b5f54610100900460ff161560835760405162461bcd60e51b815260206004820152602760248201527f496e697469616c697a61626c653a20636f6e747261637420697320696e697469604482015266616c697a696e6760c81b606482015260840160405180910390fd5b5f5460ff9081161460d1575f805460ff191660ff9081179091556040519081527f7f26b83ff96e1f2b6a682f133852f6798a09c465da95921460cefb38474024989060200160405180910390a15b565b614168806100e05f395ff3fe60806040526004361061024c575f3560e01c80635f398a1411610134578063bc197c81116100b3578063dd4e2ba511610078578063dd4e2ba5146107a5578063deaaa7cc146107ea578063eb9019d41461081d578063f23a6e611461083c578063f8ce560a14610867578063fc0c546a14610886575f5ffd5b8063bc197c811461070a578063c01f9e3714610735578063c28bc2fa14610754578063c59057e414610767578063d07f91e914610786575f5ffd5b806391ddadf4116100f957806391ddadf41461068457806397c3d334146106af5780639a802a6d146106c2578063a7713a70146106e1578063b58131b0146106f5575f5ffd5b80635f398a14146105e157806360c4247f146106005780637b3c71d31461061f5780637d5e81e21461063e57806384b0196e1461065d575f5ffd5b806332b8113e116101cb578063438596321161019057806343859632146104cb578063452115d6146105135780634bf5d7e914610532578063544ffc9c1461054657806354fd4d501461059957806356781388146105c2575f5ffd5b806332b8113e1461042457806336dfa8d91461044c5780633932abb11461046b5780633bccf4fd146104805780633e4f49e61461049f575f5ffd5b8063143489d011610211578063143489d014610314578063150b7a02146103675780632656227d146103aa5780632d63f693146103bd5780632fe3e261146103f1575f5ffd5b806301ffc9a71461026257806302a251a31461029657806303420181146102b557806306f3f9e6146102d457806306fdde03146102f3575f5ffd5b3661025e57005b60405180910390fd5b005b5f5ffd5b34801561026d575f5ffd5b5061028161027c366004613110565b6108a6565b60405190151581526020015b60405180910390f35b3480156102a1575f5ffd5b506101c7545b60405190815260200161028d565b3480156102c0575f5ffd5b506102a76102cf36600461324e565b6108b6565b3480156102df575f5ffd5b5061025c6102ee3660046132f1565b6109ac565b3480156102fe575f5ffd5b506103076109ee565b60405161028d9190613336565b34801561031f575f5ffd5b5061034f61032e3660046132f1565b5f90815260cc6020526040902054600160401b90046001600160a01b031690565b6040516001600160a01b03909116815260200161028d565b348015610372575f5ffd5b5061039161038136600461335c565b630a85bd0160e11b949350505050565b6040516001600160e01b0319909116815260200161028d565b6102a76103b8366004613522565b610a7e565b3480156103c8575f5ffd5b506102a76103d73660046132f1565b5f90815260cc60205260409020546001600160401b031690565b3480156103fc575f5ffd5b506102a77fb3b3f3b703cd84ce352197dcff232b1b5d3cfb2025ce47cf04742d0651f1af8881565b34801561042f575f5ffd5b50610194546040516001600160401b03909116815260200161028d565b348015610457575f5ffd5b5061025c6104663660046135b5565b610ba7565b348015610476575f5ffd5b506101c6546102a7565b34801561048b575f5ffd5b506102a761049a36600461362e565b610d09565b3480156104aa575f5ffd5b506104be6104b93660046132f1565b610d7d565b60405161028d919061368c565b3480156104d6575f5ffd5b506102816104e53660046136b2565b5f82815260fd602090815260408083206001600160a01b038516845260030190915290205460ff1692915050565b34801561051e575f5ffd5b506102a761052d366004613522565b610d87565b34801561053d575f5ffd5b50610307610e95565b348015610551575f5ffd5b5061057e6105603660046132f1565b5f90815260fd60205260409020805460018201546002909201549092565b6040805193845260208401929092529082015260600161028d565b3480156105a4575f5ffd5b506040805180820190915260018152603160f81b6020820152610307565b3480156105cd575f5ffd5b506102a76105dc3660046136e0565b610f40565b3480156105ec575f5ffd5b506102a76105fb36600461370a565b610f67565b34801561060b575f5ffd5b506102a761061a3660046132f1565b610faf565b34801561062a575f5ffd5b506102a761063936600461378b565b611061565b348015610649575f5ffd5b506102a76106583660046137e0565b6110a7565b348015610668575f5ffd5b5061067161147d565b60405161028d97969594939291906138d6565b34801561068f575f5ffd5b50610698611516565b60405165ffffffffffff909116815260200161028d565b3480156106ba575f5ffd5b5060646102a7565b3480156106cd575f5ffd5b506102a76106dc366004613937565b61158e565b3480156106ec575f5ffd5b506102a76115a4565b348015610700575f5ffd5b506101c8546102a7565b348015610715575f5ffd5b5061039161072436600461398b565b63bc197c8160e01b95945050505050565b348015610740575f5ffd5b506102a761074f3660046132f1565b6115d0565b61025c610762366004613a22565b6115da565b348015610772575f5ffd5b506102a7610781366004613522565b61169d565b348015610791575f5ffd5b5061025c6107a0366004613a61565b6116d6565b3480156107b0575f5ffd5b506040805180820190915260208082527f737570706f72743d627261766f2671756f72756d3d666f722c6162737461696e90820152610307565b3480156107f5575f5ffd5b506102a77f150214d74d59b7d1e90c73fc22ef3d991dd0a76b046543d4d80ab92d2a50328f81565b348015610828575f5ffd5b506102a7610837366004613a87565b611715565b348015610847575f5ffd5b50610391610856366004613ab1565b63f23a6e6160e01b95945050505050565b348015610872575f5ffd5b506102a76108813660046132f1565b611734565b348015610891575f5ffd5b5061012f5461034f906001600160a01b031681565b5f6108b0826117c0565b92915050565b5f5f6109596109517fb3b3f3b703cd84ce352197dcff232b1b5d3cfb2025ce47cf04742d0651f1af888c8c8c8c6040516108f1929190613b08565b60405180910390208b80519060200120604051602001610936959493929190948552602085019390935260ff9190911660408401526060830152608082015260a00190565b6040516020818303038152906040528051906020012061185b565b868686611887565b905061099e8a828b8b8b8080601f0160208091040260200160405190810160405280939291908181526020018383808284375f920191909152508d92506118a3915050565b9a9950505050505050505050565b3330146109cb5760405162461bcd60e51b815260040161025390613b17565b6109e2565b806109db60cd6118b1565b036109d057505b6109eb8161192e565b50565b606060cb80546109fd90613b4e565b80601f0160208091040260200160405190810160405280929190818152602001828054610a2990613b4e565b8015610a745780601f10610a4b57610100808354040283529160200191610a74565b820191905f5260205f20905b815481529060010190602001808311610a5757829003601f168201915b5050505050905090565b5f5f610a8c8686868661169d565b90505f610a9882610d7d565b90506004816007811115610aae57610aae613678565b1480610acb57506005816007811115610ac957610ac9613678565b145b610b215760405162461bcd60e51b815260206004820152602160248201527f476f7665726e6f723a2070726f706f73616c206e6f74207375636365737366756044820152601b60fa1b6064820152608401610253565b5f82815260cc602052604090819020600201805460ff19166001179055517f712ae1383f79ac853f8d882153778e0260ef8f03b504e2866e0593e04d2b291f90610b6e9084815260200190565b60405180910390a1610b838288888888611a9c565b610b908288888888611b21565b610b9d8288888888611a9c565b5095945050505050565b5f54610100900460ff1615808015610bc557505f54600160ff909116105b80610bde5750303b158015610bde57505f5460ff166001145b610c415760405162461bcd60e51b815260206004820152602e60248201527f496e697469616c697a61626c653a20636f6e747261637420697320616c72656160448201526d191e481a5b9a5d1a585b1a5e995960921b6064820152608401610253565b5f805460ff191660011790558015610c62575f805461ff0019166101001790555b610c6b89611c0b565b610c958888604051602001610c81929190613b86565b604051602081830303815290604052611c3a565b610c9e86611c90565b610ca785611cbf565b6101c68490556101c78390556101c88290558015610cfe575f805461ff0019169055604051600181527f7f26b83ff96e1f2b6a682f133852f6798a09c465da95921460cefb38474024989060200160405180910390a15b505050505050505050565b604080517f150214d74d59b7d1e90c73fc22ef3d991dd0a76b046543d4d80ab92d2a50328f602082015290810186905260ff851660608201525f908190610d569061095190608001610936565b9050610d7287828860405180602001604052805f815250611cee565b979650505050505050565b5f6108b082611d18565b5f5f610d958686868661169d565b90505f610da182610d7d565b6007811115610db257610db2613678565b14610dff5760405162461bcd60e51b815260206004820152601c60248201527f476f7665726e6f723a20746f6f206c61746520746f2063616e63656c000000006044820152606401610253565b5f81815260cc6020526040902054600160401b90046001600160a01b0316336001600160a01b031614610e7f5760405162461bcd60e51b815260206004820152602260248201527f476f7665726e6f723a206f6e6c792070726f706f7365722063616e2063616e63604482015261195b60f21b6064820152608401610253565b610e8b86868686611e44565b9695505050505050565b61012f5460408051634bf5d7e960e01b815290516060926001600160a01b031691634bf5d7e9916004808301925f9291908290030181865afa925050508015610eff57506040513d5f823e601f3d908101601f19168201604052610efc9190810190613bb3565b60015b610f3b575060408051808201909152601d81527f6d6f64653d626c6f636b6e756d6265722666726f6d3d64656661756c74000000602082015290565b919050565b5f80339050610f5f84828560405180602001604052805f815250611cee565b949350505050565b5f80339050610d7287828888888080601f0160208091040260200160405190810160405280939291908181526020018383808284375f920191909152508a92506118a3915050565b610163545f90808203610fc757505061016254919050565b5f610163610fd6600184613c3b565b81548110610fe657610fe6613c4e565b5f9182526020918290206040805180820190915291015463ffffffff8116808352600160201b9091046001600160e01b0316928201929092529150841061103b57602001516001600160e01b03169392505050565b61105061104785611e51565b61016390611eb9565b6001600160e01b0316949350505050565b5f80339050610e8b86828787878080601f0160208091040260200160405190810160405280939291908181526020018383808284375f92019190915250611cee92505050565b5f336110b38184611f66565b6110ff5760405162461bcd60e51b815260206004820152601d60248201527f476f7665726e6f723a2070726f706f73657220726573747269637465640000006044820152606401610253565b5f611108611516565b65ffffffffffff16905061111c6101c85490565b61112b83610837600185613c3b565b10156111935760405162461bcd60e51b815260206004820152603160248201527f476f7665726e6f723a2070726f706f73657220766f7465732062656c6f7720706044820152701c9bdc1bdcd85b081d1a1c995cda1bdb19607a1b6064820152608401610253565b5f6111a7888888888051906020012061169d565b905086518851146111ca5760405162461bcd60e51b815260040161025390613c62565b85518851146111eb5760405162461bcd60e51b815260040161025390613c62565b5f88511161123b5760405162461bcd60e51b815260206004820152601860248201527f476f7665726e6f723a20656d7074792070726f706f73616c00000000000000006044820152606401610253565b5f81815260cc60205260409020546001600160401b0316156112a95760405162461bcd60e51b815260206004820152602160248201527f476f7665726e6f723a2070726f706f73616c20616c72656164792065786973746044820152607360f81b6064820152608401610253565b5f6112b46101c65490565b6112be9084613ca3565b90505f6112cb6101c75490565b6112d59083613ca3565b90506040518060e001604052806112eb8461204e565b6001600160401b031681526001600160a01b03871660208201525f60408201526060016113178361204e565b6001600160401b0390811682525f60208084018290526040808501839052606094850183905288835260cc8252918290208551815492870151878501519186166001600160e01b031990941693909317600160401b6001600160a01b039094168402176001600160e01b0316600160e01b60e09290921c91909102178155938501516080860151908416921c0217600183015560a08301516002909201805460c09094015161ffff1990941692151561ff00191692909217610100931515939093029290921790558a517f7d84a6263ae0d98d3329bd7b46bb4e8d6f98cd35a7adb45c274c8b7fd5ebd5e091859188918e918e9181111561141a5761141a61318b565b60405190808252806020026020018201604052801561144d57816020015b60608152602001906001900390816114385790505b508d88888f60405161146799989796959493929190613d49565b60405180910390a1509098975050505050505050565b5f6060805f5f5f60606065545f5f1b1480156114995750606654155b6114dd5760405162461bcd60e51b81526020600482015260156024820152741152540dcc4c8e88155b9a5b9a5d1a585b1a5e9959605a1b6044820152606401610253565b6114e56120b5565b6114ed6120c4565b604080515f80825260208201909252600f60f81b9b939a50919850469750309650945092509050565b61012f54604080516324776b7d60e21b815290515f926001600160a01b0316916391ddadf49160048083019260209291908290030181865afa92505050801561157c575060408051601f3d908101601f1916820190925261157991810190613e24565b60015b610f3b57611589436120d3565b905090565b5f61159a848484612139565b90505b9392505050565b610163545f90156115c8576115ba6101636121ad565b6001600160e01b0316905090565b506101625490565b5f6108b0826121e4565b3330146115f95760405162461bcd60e51b815260040161025390613b17565b611610565b8061160960cd6118b1565b036115fe57505b5f5f856001600160a01b031685858560405161162d929190613b08565b5f6040518083038185875af1925050503d805f8114611667576040519150601f19603f3d011682016040523d82523d5f602084013e61166c565b606091505b509150915061169482826040518060600160405280602881526020016140e46028913961221f565b50505050505050565b5f848484846040516020016116b59493929190613e49565b60408051601f19818403018152919052805160209091012095945050505050565b3330146116f55760405162461bcd60e51b815260040161025390613b17565b61170c565b8061170560cd6118b1565b036116fa57505b6109eb81612238565b5f61159d838361172f60408051602081019091525f815290565b612139565b5f606461174083610faf565b61012f54604051632394e7a360e21b8152600481018690526001600160a01b0390911690638e539e8c90602401602060405180830381865afa158015611788573d5f5f3e3d5ffd5b505050506040513d601f19601f820116820180604052508101906117ac9190613e93565b6117b69190613eaa565b6108b09190613ed5565b5f63288ace0360e11b6318df743f60e31b63bf26d89760e01b6379dd796f60e01b6001600160e01b0319861682148061180557506001600160e01b0319868116908216145b8061181c57506001600160e01b0319868116908516145b8061183757506001600160e01b03198616630271189760e51b145b80610e8b57506301ffc9a760e01b6001600160e01b03198716149695505050505050565b5f6108b06118676122a4565b8360405161190160f01b8152600281019290925260228201526042902090565b5f5f5f611896878787876122ad565b91509150610b9d8161236a565b5f610e8b86868686866124b3565b5f6118cb8254600f81810b600160801b909204900b131590565b156118e957604051631ed9509560e11b815260040160405180910390fd5b508054600f0b5f818152600180840160205260408220805492905583546fffffffffffffffffffffffffffffffff191692016001600160801b03169190911790915590565b60648111156119b15760405162461bcd60e51b815260206004820152604360248201527f476f7665726e6f72566f74657351756f72756d4672616374696f6e3a2071756f60448201527f72756d4e756d657261746f72206f7665722071756f72756d44656e6f6d696e616064820152623a37b960e91b608482015260a401610253565b5f6119ba6115a4565b905080158015906119cc575061016354155b15611a2f57604080518082019091525f815261016390602081016119ef846125b2565b6001600160e01b0390811690915282546001810184555f93845260209384902083519490930151909116600160201b0263ffffffff909316929092179101555b611a5d611a4a611a3d611516565b65ffffffffffff16611e51565b611a53846125b2565b610163919061261a565b505060408051828152602081018490527f0553476bf02ef2726e8ce5ced78d63e26e602e4a2257b1f559418e24b4633997910160405180910390a15050565b611b1a565b8451811015611b1857306001600160a01b0316858281518110611ac657611ac6613c4e565b60200260200101516001600160a01b031603611b1057611b10838281518110611af157611af1613c4e565b60200260200101518051906020012060cd61263490919063ffffffff16565b600101611aa1565b505b5050505050565b5f60405180606001604052806027815260200161410c6027913990505f5b8551811015611694575f5f878381518110611b5c57611b5c613c4e565b60200260200101516001600160a01b0316878481518110611b7f57611b7f613c4e565b6020026020010151878581518110611b9957611b99613c4e565b6020026020010151604051611bae9190613ef4565b5f6040518083038185875af1925050503d805f8114611be8576040519150601f19603f3d011682016040523d82523d5f602084013e611bed565b606091505b5091509150611bfd82828661221f565b505050806001019050611b3f565b5f54610100900460ff16611c315760405162461bcd60e51b815260040161025390613f0a565b6109eb8161266f565b5f54610100900460ff16611c605760405162461bcd60e51b815260040161025390613f0a565b611c8781611c826040805180820190915260018152603160f81b602082015290565b6126b8565b6109eb81612705565b5f54610100900460ff16611cb65760405162461bcd60e51b815260040161025390613f0a565b6109eb8161273b565b5f54610100900460ff16611ce55760405162461bcd60e51b815260040161025390613f0a565b6109eb81612761565b5f611d0f85858585611d0a60408051602081019091525f815290565b6118a3565b95945050505050565b5f81815260cc60205260408120600281015460ff1615611d3b5750600792915050565b6002810154610100900460ff1615611d565750600292915050565b5f83815260cc60205260408120546001600160401b031690819003611dbd5760405162461bcd60e51b815260206004820152601d60248201527f476f7665726e6f723a20756e6b6e6f776e2070726f706f73616c2069640000006044820152606401610253565b5f611dc6611516565b65ffffffffffff169050808210611de157505f949350505050565b5f611deb866115d0565b9050818110611e005750600195945050505050565b611e0986612787565b8015611e2757505f86815260fd602052604090208054600190910154115b15611e385750600495945050505050565b50600395945050505050565b5f611d0f858585856127d1565b5f63ffffffff821115611eb55760405162461bcd60e51b815260206004820152602660248201527f53616665436173743a2076616c756520646f65736e27742066697420696e203360448201526532206269747360d01b6064820152608401610253565b5090565b81545f9081816005811115611f13575f611ed2846128ec565b611edc9085613c3b565b5f8881526020902090915081015463ffffffff9081169087161015611f0357809150611f11565b611f0e816001613ca3565b92505b505b5f611f20878785856129d0565b90508015611f5a57611f4487611f37600184613c3b565b5f91825260209091200190565b54600160201b90046001600160e01b0316610d72565b5f979650505050505050565b80515f906034811015611f7d5760019150506108b0565b82810160131901516001600160a01b031981166b046e0e4dee0dee6cae47a60f60a31b14611fb0576001925050506108b0565b5f80611fbd602885613c3b565b90505b8381101561202d575f5f611ff3888481518110611fdf57611fdf613c4e565b01602001516001600160f81b031916612a2b565b915091508161200b57600196505050505050506108b0565b8060ff166004856001600160a01b0316901b1793505050806001019050611fc0565b50856001600160a01b0316816001600160a01b031614935050505092915050565b5f6001600160401b03821115611eb55760405162461bcd60e51b815260206004820152602660248201527f53616665436173743a2076616c756520646f65736e27742066697420696e203660448201526534206269747360d01b6064820152608401610253565b6060606780546109fd90613b4e565b6060606880546109fd90613b4e565b5f65ffffffffffff821115611eb55760405162461bcd60e51b815260206004820152602660248201527f53616665436173743a2076616c756520646f65736e27742066697420696e203460448201526538206269747360d01b6064820152608401610253565b61012f54604051630748d63560e31b81526001600160a01b038581166004830152602482018590525f921690633a46b1a890604401602060405180830381865afa158015612189573d5f5f3e3d5ffd5b505050506040513d601f19601f8201168201806040525081019061159a9190613e93565b80545f9080156121dc576121c683611f37600184613c3b565b54600160201b90046001600160e01b031661159d565b5f9392505050565b5f81815260cc60205260408120600101546108b0906001600160401b03165f84815261019560205260409020546001600160401b0316612abb565b6060831561222e57508161159d565b61159d8383612ad0565b61019454604080516001600160401b03928316815291831660208301527f7ca4ac117ed3cdce75c1161d8207c440389b1a15d69d096831664657c07dafc2910160405180910390a1610194805467ffffffffffffffff19166001600160401b0392909216919091179055565b5f611589612afa565b5f807f7fffffffffffffffffffffffffffffff5d576e7357a4501ddfe92f46681b20a08311156122e257505f90506003612361565b604080515f8082526020820180845289905260ff881692820192909252606081018690526080810185905260019060a0016020604051602081039080840390855afa158015612333573d5f5f3e3d5ffd5b5050604051601f1901519150506001600160a01b03811661235b575f60019250925050612361565b91505f90505b94509492505050565b5f81600481111561237d5761237d613678565b036123855750565b600181600481111561239957612399613678565b036123e65760405162461bcd60e51b815260206004820152601860248201527f45434453413a20696e76616c6964207369676e617475726500000000000000006044820152606401610253565b60028160048111156123fa576123fa613678565b036124475760405162461bcd60e51b815260206004820152601f60248201527f45434453413a20696e76616c6964207369676e6174757265206c656e677468006044820152606401610253565b600381600481111561245b5761245b613678565b036109eb5760405162461bcd60e51b815260206004820152602260248201527f45434453413a20696e76616c6964207369676e6174757265202773272076616c604482015261756560f01b6064820152608401610253565b5f5f6124c28787878787612b6d565b5f88815261019560205260409020549091506001600160401b03161580156124ee57506124ee87612787565b15610e8b575f612507610194546001600160401b031690565b61250f611516565b65ffffffffffff166125219190613f55565b905061252c886115d0565b816001600160401b0316111561257b576040516001600160401b038216815288907f541f725fb9f7c98a30cc9c0ff32fbb14358cd7159c847a3aa20a2bdc442ba5119060200160405180910390a25b5f88815261019560205260409020805467ffffffffffffffff19166001600160401b03929092169190911790559695505050505050565b5f6001600160e01b03821115611eb55760405162461bcd60e51b815260206004820152602760248201527f53616665436173743a2076616c756520646f65736e27742066697420696e20326044820152663234206269747360c81b6064820152608401610253565b5f80612627858585612cbf565b915091505b935093915050565b8154600160801b90819004600f0b5f818152600180860160205260409091209390935583546001600160801b03908116939091011602179055565b5f54610100900460ff166126955760405162461bcd60e51b815260040161025390613f0a565b61012f80546001600160a01b0319166001600160a01b0392909216919091179055565b5f54610100900460ff166126de5760405162461bcd60e51b815260040161025390613f0a565b60676126ea8382613fbd565b5060686126f78282613fbd565b50505f606581905560665550565b5f54610100900460ff1661272b5760405162461bcd60e51b815260040161025390613f0a565b60cb6127378282613fbd565b5050565b5f54610100900460ff166109e25760405162461bcd60e51b815260040161025390613f0a565b5f54610100900460ff1661170c5760405162461bcd60e51b815260040161025390613f0a565b5f81815260fd60205260408120600281015460018201546127a89190613ca3565b5f84815260cc60205260409020546127c8906001600160401b0316611734565b11159392505050565b5f5f6127df8686868661169d565b90505f6127eb82610d7d565b9050600281600781111561280157612801613678565b141580156128215750600681600781111561281e5761281e613678565b14155b801561283f5750600781600781111561283c5761283c613678565b14155b61288b5760405162461bcd60e51b815260206004820152601d60248201527f476f7665726e6f723a2070726f706f73616c206e6f74206163746976650000006044820152606401610253565b5f82815260cc602052604090819020600201805461ff001916610100179055517f789cf55be980739dad1d0699b93b58e806b51c9d96619bfa8fe0a28abaa7b30c906128da9084815260200190565b60405180910390a15095945050505050565b5f815f036128fb57505f919050565b5f600161290784612e5a565b901c6001901b9050600181848161292057612920613ec1565b048201901c9050600181848161293857612938613ec1565b048201901c9050600181848161295057612950613ec1565b048201901c9050600181848161296857612968613ec1565b048201901c9050600181848161298057612980613ec1565b048201901c9050600181848161299857612998613ec1565b048201901c905060018184816129b0576129b0613ec1565b048201901c905061159d818285816129ca576129ca613ec1565b04612eed565b5f5b81831015612a23575f6129e58484612efb565b5f8781526020902090915063ffffffff86169082015463ffffffff161115612a0f57809250612a1d565b612a1a816001613ca3565b93505b506129d2565b509392505050565b5f8060f883901c602f81118015612a455750603a8160ff16105b15612a5a57600194602f199091019350915050565b8060ff166040108015612a70575060478160ff16105b15612a85576001946036199091019350915050565b8060ff166060108015612a9b575060678160ff16105b15612ab0576001946056199091019350915050565b505f93849350915050565b5f818311612ac9578161159d565b5090919050565b815115612ae05781518083602001fd5b8060405162461bcd60e51b81526004016102539190613336565b5f7f8b73c3c69bb8fe3d512ecc4cf759cc79239f7b179b0ffacaa9a75d522b39400f612b24612f15565b612b2c612f6d565b60408051602081019490945283019190915260608201524660808201523060a082015260c00160405160208183030381529060405280519060200120905090565b5f85815260cc602052604081206001612b8588610d7d565b6007811115612b9657612b96613678565b14612bef5760405162461bcd60e51b815260206004820152602360248201527f476f7665726e6f723a20766f7465206e6f742063757272656e746c792061637460448201526269766560e81b6064820152608401610253565b80545f90612c089088906001600160401b031686612139565b9050612c178888888488612f9d565b83515f03612c6b57866001600160a01b03167fb8e138887d0aa13bab447e82de9d5c1777041ecd21ca36ba824ff1e6c07ddda489888489604051612c5e9493929190614077565b60405180910390a2610d72565b866001600160a01b03167fe2babfbac5889a709b63bb7f598b324e08bc5a4fb9ec647fb3cbc9ec07eb87128988848989604051612cac95949392919061409e565b60405180910390a2979650505050505050565b82545f9081908015612e02575f612cdb87611f37600185613c3b565b60408051808201909152905463ffffffff808216808452600160201b9092046001600160e01b031660208401529192509087161015612d5c5760405162461bcd60e51b815260206004820152601b60248201527f436865636b706f696e743a2064656372656173696e67206b65797300000000006044820152606401610253565b805163ffffffff808816911603612da45784612d7d88611f37600186613c3b565b80546001600160e01b0392909216600160201b0263ffffffff909216919091179055612df2565b6040805180820190915263ffffffff80881682526001600160e01b0380881660208085019182528b54600181018d555f8d81529190912094519151909216600160201b029216919091179101555b60200151925083915061262c9050565b50506040805180820190915263ffffffff80851682526001600160e01b0380851660208085019182528854600181018a555f8a815291822095519251909316600160201b02919093161792019190915590508161262c565b5f80608083901c15612e6e57608092831c92015b604083901c15612e8057604092831c92015b602083901c15612e9257602092831c92015b601083901c15612ea457601092831c92015b600883901c15612eb657600892831c92015b600483901c15612ec857600492831c92015b600283901c15612eda57600292831c92015b600183901c156108b05760010192915050565b5f818310612ac9578161159d565b5f612f096002848418613ed5565b61159d90848416613ca3565b5f5f612f1f6120b5565b805190915015612f36578051602090910120919050565b6065548015612f455792915050565b7fc5d2460186f7233c927e7db2dcc703c0e500b653ca82273b7bfad8045d85a4709250505090565b5f5f612f776120c4565b805190915015612f8e578051602090910120919050565b6066548015612f455792915050565b5f85815260fd602090815260408083206001600160a01b0388168452600381019092529091205460ff16156130245760405162461bcd60e51b815260206004820152602760248201527f476f7665726e6f72566f74696e6753696d706c653a20766f746520616c726561604482015266191e4818d85cdd60ca1b6064820152608401610253565b6001600160a01b0385165f9081526003820160205260409020805460ff1916600117905560ff841661306d5782815f015f8282546130629190613ca3565b90915550611b189050565b5f1960ff85160161308b5782816001015f8282546130629190613ca3565b60011960ff8516016130aa5782816002015f8282546130629190613ca3565b60405162461bcd60e51b815260206004820152603560248201527f476f7665726e6f72566f74696e6753696d706c653a20696e76616c69642076616044820152746c756520666f7220656e756d20566f74655479706560581b6064820152608401610253565b5f60208284031215613120575f5ffd5b81356001600160e01b03198116811461159d575f5ffd5b803560ff81168114610f3b575f5ffd5b5f5f83601f840112613157575f5ffd5b5081356001600160401b0381111561316d575f5ffd5b602083019150836020828501011115613184575f5ffd5b9250929050565b634e487b7160e01b5f52604160045260245ffd5b604051601f8201601f191681016001600160401b03811182821017156131c7576131c761318b565b604052919050565b5f6001600160401b038211156131e7576131e761318b565b50601f01601f191660200190565b5f613207613202846131cf565b61319f565b905082815283838301111561321a575f5ffd5b828260208301375f602084830101529392505050565b5f82601f83011261323f575f5ffd5b61159d838335602085016131f5565b5f5f5f5f5f5f5f5f60e0898b031215613265575f5ffd5b8835975061327560208a01613137565b965060408901356001600160401b0381111561328f575f5ffd5b61329b8b828c01613147565b90975095505060608901356001600160401b038111156132b9575f5ffd5b6132c58b828c01613230565b9450506132d460808a01613137565b979a969950949793969295929450505060a08201359160c0013590565b5f60208284031215613301575f5ffd5b5035919050565b5f81518084528060208401602086015e5f602082860101526020601f19601f83011685010191505092915050565b602081525f61159d6020830184613308565b6001600160a01b03811681146109eb575f5ffd5b5f5f5f5f6080858703121561336f575f5ffd5b843561337a81613348565b9350602085013561338a81613348565b92506040850135915060608501356001600160401b038111156133ab575f5ffd5b6133b787828801613230565b91505092959194509250565b5f6001600160401b038211156133db576133db61318b565b5060051b60200190565b5f82601f8301126133f4575f5ffd5b8135613402613202826133c3565b8082825260208201915060208360051b860101925085831115613423575f5ffd5b602085015b83811015610b9d57803561343b81613348565b835260209283019201613428565b5f82601f830112613458575f5ffd5b8135613466613202826133c3565b8082825260208201915060208360051b860101925085831115613487575f5ffd5b602085015b83811015610b9d57803583526020928301920161348c565b5f82601f8301126134b3575f5ffd5b81356134c1613202826133c3565b8082825260208201915060208360051b8601019250858311156134e2575f5ffd5b602085015b83811015610b9d5780356001600160401b03811115613504575f5ffd5b613513886020838a0101613230565b845250602092830192016134e7565b5f5f5f5f60808587031215613535575f5ffd5b84356001600160401b0381111561354a575f5ffd5b613556878288016133e5565b94505060208501356001600160401b03811115613571575f5ffd5b61357d87828801613449565b93505060408501356001600160401b03811115613598575f5ffd5b6135a4878288016134a4565b949793965093946060013593505050565b5f5f5f5f5f5f5f5f60e0898b0312156135cc575f5ffd5b88356135d781613348565b975060208901356001600160401b038111156135f1575f5ffd5b6135fd8b828c01613147565b999c909b509899604081013599606082013599506080820135985060a0820135975060c09091013595509350505050565b5f5f5f5f5f60a08688031215613642575f5ffd5b8535945061365260208701613137565b935061366060408701613137565b94979396509394606081013594506080013592915050565b634e487b7160e01b5f52602160045260245ffd5b60208101600883106136ac57634e487b7160e01b5f52602160045260245ffd5b91905290565b5f5f604083850312156136c3575f5ffd5b8235915060208301356136d581613348565b809150509250929050565b5f5f604083850312156136f1575f5ffd5b8235915061370160208401613137565b90509250929050565b5f5f5f5f5f6080868803121561371e575f5ffd5b8535945061372e60208701613137565b935060408601356001600160401b03811115613748575f5ffd5b61375488828901613147565b90945092505060608601356001600160401b03811115613772575f5ffd5b61377e88828901613230565b9150509295509295909350565b5f5f5f5f6060858703121561379e575f5ffd5b843593506137ae60208601613137565b925060408501356001600160401b038111156137c8575f5ffd5b6137d487828801613147565b95989497509550505050565b5f5f5f5f608085870312156137f3575f5ffd5b84356001600160401b03811115613808575f5ffd5b613814878288016133e5565b94505060208501356001600160401b0381111561382f575f5ffd5b61383b87828801613449565b93505060408501356001600160401b03811115613856575f5ffd5b613862878288016134a4565b92505060608501356001600160401b0381111561387d575f5ffd5b8501601f8101871361388d575f5ffd5b6133b7878235602084016131f5565b5f8151808452602084019350602083015f5b828110156138cc5781518652602095860195909101906001016138ae565b5093949350505050565b60ff60f81b8816815260e060208201525f6138f460e0830189613308565b82810360408401526139068189613308565b606084018890526001600160a01b038716608085015260a0840186905283810360c0850152905061099e818561389c565b5f5f5f60608486031215613949575f5ffd5b833561395481613348565b92506020840135915060408401356001600160401b03811115613975575f5ffd5b61398186828701613230565b9150509250925092565b5f5f5f5f5f60a0868803121561399f575f5ffd5b85356139aa81613348565b945060208601356139ba81613348565b935060408601356001600160401b038111156139d4575f5ffd5b6139e088828901613449565b93505060608601356001600160401b038111156139fb575f5ffd5b613a0788828901613449565b92505060808601356001600160401b03811115613772575f5ffd5b5f5f5f5f60608587031215613a35575f5ffd5b8435613a4081613348565b93506020850135925060408501356001600160401b038111156137c8575f5ffd5b5f60208284031215613a71575f5ffd5b81356001600160401b038116811461159d575f5ffd5b5f5f60408385031215613a98575f5ffd5b8235613aa381613348565b946020939093013593505050565b5f5f5f5f5f60a08688031215613ac5575f5ffd5b8535613ad081613348565b94506020860135613ae081613348565b9350604086013592506060860135915060808601356001600160401b03811115613772575f5ffd5b818382375f9101908152919050565b60208082526018908201527f476f7665726e6f723a206f6e6c79476f7665726e616e63650000000000000000604082015260600190565b600181811c90821680613b6257607f821691505b602082108103613b8057634e487b7160e01b5f52602260045260245ffd5b50919050565b7102932ba3434b7359023b7bb32b93737b91d160751b8152818360128301375f9101601201908152919050565b5f60208284031215613bc3575f5ffd5b81516001600160401b03811115613bd8575f5ffd5b8201601f81018413613be8575f5ffd5b8051613bf6613202826131cf565b818152856020838501011115613c0a575f5ffd5b8160208401602083015e5f91810160200191909152949350505050565b634e487b7160e01b5f52601160045260245ffd5b818103818111156108b0576108b0613c27565b634e487b7160e01b5f52603260045260245ffd5b60208082526021908201527f476f7665726e6f723a20696e76616c69642070726f706f73616c206c656e67746040820152600d60fb1b606082015260800190565b808201808211156108b0576108b0613c27565b5f8151808452602084019350602083015f5b828110156138cc5781516001600160a01b0316865260209586019590910190600101613cc8565b5f82825180855260208501945060208160051b830101602085015f5b83811015613d3d57601f19858403018852613d27838351613308565b6020988901989093509190910190600101613d0b565b50909695505050505050565b8981526001600160a01b0389166020820152610120604082018190525f90613d739083018a613cb6565b8281036060840152613d85818a61389c565b9050828103608084015280885180835260208301915060208160051b84010160208b015f5b83811015613ddc57601f19868403018552613dc6838351613308565b6020958601959093509190910190600101613daa565b505085810360a0870152613df0818b613cef565b93505050508560c08401528460e0840152828103610100840152613e148185613308565b9c9b505050505050505050505050565b5f60208284031215613e34575f5ffd5b815165ffffffffffff8116811461159d575f5ffd5b608081525f613e5b6080830187613cb6565b8281036020840152613e6d818761389c565b90508281036040840152613e818186613cef565b91505082606083015295945050505050565b5f60208284031215613ea3575f5ffd5b5051919050565b80820281158282048414176108b0576108b0613c27565b634e487b7160e01b5f52601260045260245ffd5b5f82613eef57634e487b7160e01b5f52601260045260245ffd5b500490565b5f82518060208501845e5f920191825250919050565b6020808252602b908201527f496e697469616c697a61626c653a20636f6e7472616374206973206e6f74206960408201526a6e697469616c697a696e6760a81b606082015260800190565b6001600160401b0381811683821601908111156108b0576108b0613c27565b601f821115613fb857805f5260205f20601f840160051c81016020851015613f995750805b601f840160051c820191505b81811015611b1a575f8155600101613fa5565b505050565b81516001600160401b03811115613fd657613fd661318b565b613fea81613fe48454613b4e565b84613f74565b6020601f82116001811461401c575f83156140055750848201515b5f19600385901b1c1916600184901b178455611b1a565b5f84815260208120601f198516915b8281101561404b578785015182556020948501946001909201910161402b565b508482101561406857868401515f19600387901b60f8161c191681555b50505050600190811b01905550565b84815260ff84166020820152826040820152608060608201525f610e8b6080830184613308565b85815260ff8516602082015283604082015260a060608201525f6140c560a0830185613308565b82810360808401526140d78185613308565b9897505050505050505056fe476f7665726e6f723a2072656c617920726576657274656420776974686f7574206d657373616765476f7665726e6f723a2063616c6c20726576657274656420776974686f7574206d657373616765a2646970667358221220ae7d48a9829ddc75062460076f4bd8cb6d495e5aa03c8c6a4e3469748fa3d90364736f6c634300081c0033",
  "immutableReferences": {},
  "source": "// SPDX-License-Identifier: GPL-3.0-only\r\npragma solidity ^0.8.0;\r\n\r\n//import \"@openzeppelin/contracts/governance/Governor.sol\";\r\nimport \"@openzeppelin/contracts-upgradeable/governance/extensions/GovernorVotesUpgradeable.sol\";\r\nimport \"@openzeppelin/contracts-upgradeable/governance/extensions/GovernorCountingSimpleUpgradeable.sol\";\r\nimport \"@openzeppelin/contracts-upgradeable/governance/extensions/GovernorVotesQuorumFractionUpgradeable.sol\";\r\nimport \"@openzeppelin/contracts-upgradeable/governance/extensions/GovernorPreventLateQuorumUpgradeable.sol\";\r\nimport \"@openzeppelin/contracts-upgradeable/governance/extensions/GovernorTimelockControlUpgradeable.sol\";\r\n\r\n\r\ncontract RethinkFundGovernor is \r\n\tGovernorUpgradeable,\r\n\tGovernorCountingSimpleUpgradeable,\r\n\tGovernorVotesUpgradeable,\r\n\tGovernorVotesQuorumFractionUpgradeable,\r\n\tGovernorPreventLateQuorumUpgradeable\r\n{\r\n    uint256 _votingDelay;\r\n    uint256 _votingPeriod;\r\n    uint256 _proposalThreshold;\r\n\t/// @custom:oz-upgrades-unsafe-allow constructor\r\n    constructor() {\r\n        _disableInitializers();\r\n    }\r\n\r\n    //function initialize(IVotesUpgradeable _token, string calldata _govName) external initializer {\r\n    \r\n    function initialize(IVotesUpgradeable _token, string calldata _govName, uint256 quorumFraction, uint256 lateQuorum, uint256 vDelay, uint256 vPeriod, uint256 proposalThreshold) external initializer {\r\n\t\t__GovernorVotes_init(_token);\r\n\t\t__Governor_init(string(abi.encodePacked(\"Rethink Governor: \", _govName)));\r\n        //__GovernorVotesQuorumFraction_init(10);//10 percent quorum\r\n        __GovernorVotesQuorumFraction_init(quorumFraction);//10 percent quorum\r\n        //__GovernorPreventLateQuorum_init(86400); //1 day in seconds\r\n        __GovernorPreventLateQuorum_init(uint64(lateQuorum)); //1 day in seconds\r\n        _votingDelay = vDelay;\r\n        _votingPeriod = vPeriod;\r\n        _proposalThreshold = proposalThreshold;//The number of votes required in order for a voter to become a proposer\"_.\r\n\t}\r\n\r\n    /**\r\n     * @dev Part of the Governor Bravo's interface: _\"The number of votes required in order for a voter to become a proposer\"_.\r\n     */\r\n    function proposalThreshold() public view override returns (uint256) {\r\n        return _proposalThreshold;\r\n    }\r\n\r\n\tfunction votingDelay() public view override returns (uint256) {\r\n        //return 60;//1 min 7200; // 1 day\r\n        return _votingDelay; //seconds\r\n    }\r\n\r\n    function votingPeriod() public view override returns (uint256) {\r\n        //return 60*30;// 30 min 50400; // 1 week\r\n        return _votingPeriod; //seconds\r\n    }\r\n\r\n    // The functions below are overrides required by Solidity.\r\n\r\n    function _castVote(\r\n        uint256 proposalId,\r\n        address account,\r\n        uint8 support,\r\n        string memory reason,\r\n        bytes memory params\r\n    ) internal override(GovernorUpgradeable, GovernorPreventLateQuorumUpgradeable) returns (uint256) {\r\n        return super._castVote(proposalId, account, support, reason, params);\r\n    }\r\n\r\n    function proposalDeadline(uint256 proposalId) public view override(GovernorUpgradeable, GovernorPreventLateQuorumUpgradeable) returns (uint256) {\r\n        return super.proposalDeadline(proposalId);\r\n    }\r\n\r\n    function state(\r\n        uint256 proposalId\r\n    ) public view override(GovernorUpgradeable) returns (ProposalState) {\r\n        return super.state(proposalId);\r\n    }\r\n\r\n    function _execute(\r\n        uint256 proposalId,\r\n        address[] memory targets,\r\n        uint256[] memory values,\r\n        bytes[] memory calldatas,\r\n        bytes32 descriptionHash\r\n    ) internal override(GovernorUpgradeable) {\r\n        string memory errorMessage = \"Governor: call reverted without message\";\r\n        for (uint256 i = 0; i < targets.length; ++i) {\r\n            (bool success, bytes memory returndata) = targets[i].call{value: values[i]}(calldatas[i]);\r\n            AddressUpgradeable.verifyCallResult(success, returndata, errorMessage);\r\n        }\r\n    }\r\n\r\n    function _cancel(\r\n        address[] memory targets,\r\n        uint256[] memory values,\r\n        bytes[] memory calldatas,\r\n        bytes32 descriptionHash\r\n    ) internal override(GovernorUpgradeable) returns (uint256) {\r\n        return super._cancel(targets, values, calldatas, descriptionHash);\r\n    }\r\n\r\n    function _executor() internal view override(GovernorUpgradeable) returns (address) {\r\n        return address(this);\r\n    }\r\n\r\n    function supportsInterface(\r\n        bytes4 interfaceId\r\n    ) public view override(GovernorUpgradeable) returns (bool) {\r\n        return super.supportsInterface(interfaceId);\r\n    }\r\n}\r\n",
  "sourcePath": "F:\\Soonami\\Foundance\\rethink-core\\contracts\\fund\\RethinkFundGovernor.sol",
  "compiler": {
    "name": "solc",
    "version": "0.8.28+commit.7893614a.Emscripten.clang"
  },
  "schemaVersion": "3.4.16",
  "updatedAt": "2024-10-18T13:18:17.239Z",
  "devdoc": {
    "errors": {
      "Empty()": [
        {
          "details": "An operation (e.g. {front}) couldn't be completed due to the queue being empty."
        }
      ]
    },
    "events": {
      "EIP712DomainChanged()": {
        "details": "MAY be emitted to signal that the domain could have changed."
      },
      "Initialized(uint8)": {
        "details": "Triggered when the contract has been initialized or reinitialized."
      },
      "LateQuorumVoteExtensionSet(uint64,uint64)": {
        "details": "Emitted when the {lateQuorumVoteExtension} parameter is changed."
      },
      "ProposalCanceled(uint256)": {
        "details": "Emitted when a proposal is canceled."
      },
      "ProposalCreated(uint256,address,address[],uint256[],string[],bytes[],uint256,uint256,string)": {
        "details": "Emitted when a proposal is created."
      },
      "ProposalExecuted(uint256)": {
        "details": "Emitted when a proposal is executed."
      },
      "ProposalExtended(uint256,uint64)": {
        "details": "Emitted when a proposal deadline is pushed back due to reaching quorum late in its voting period."
      },
      "VoteCast(address,uint256,uint8,uint256,string)": {
        "details": "Emitted when a vote is cast without params. Note: `support` values should be seen as buckets. Their interpretation depends on the voting module used."
      },
      "VoteCastWithParams(address,uint256,uint8,uint256,string,bytes)": {
        "details": "Emitted when a vote is cast with params. Note: `support` values should be seen as buckets. Their interpretation depends on the voting module used. `params` are additional encoded parameters. Their interpepretation also depends on the voting module used."
      }
    },
    "kind": "dev",
    "methods": {
      "CLOCK_MODE()": {
        "details": "Machine-readable description of the clock as specified in EIP-6372."
      },
      "COUNTING_MODE()": {
        "details": "See {IGovernor-COUNTING_MODE}."
      },
      "cancel(address[],uint256[],bytes[],bytes32)": {
        "details": "See {IGovernor-cancel}."
      },
      "castVote(uint256,uint8)": {
        "details": "See {IGovernor-castVote}."
      },
      "castVoteBySig(uint256,uint8,uint8,bytes32,bytes32)": {
        "details": "See {IGovernor-castVoteBySig}."
      },
      "castVoteWithReason(uint256,uint8,string)": {
        "details": "See {IGovernor-castVoteWithReason}."
      },
      "castVoteWithReasonAndParams(uint256,uint8,string,bytes)": {
        "details": "See {IGovernor-castVoteWithReasonAndParams}."
      },
      "castVoteWithReasonAndParamsBySig(uint256,uint8,string,bytes,uint8,bytes32,bytes32)": {
        "details": "See {IGovernor-castVoteWithReasonAndParamsBySig}."
      },
      "clock()": {
        "details": "Clock (as specified in EIP-6372) is set to match the token's clock. Fallback to block numbers if the token does not implement EIP-6372."
      },
      "constructor": {
        "custom:oz-upgrades-unsafe-allow": "constructor"
      },
      "eip712Domain()": {
        "details": "See {EIP-5267}. _Available since v4.9._"
      },
      "execute(address[],uint256[],bytes[],bytes32)": {
        "details": "See {IGovernor-execute}."
      },
      "getVotes(address,uint256)": {
        "details": "See {IGovernor-getVotes}."
      },
      "getVotesWithParams(address,uint256,bytes)": {
        "details": "See {IGovernor-getVotesWithParams}."
      },
      "hasVoted(uint256,address)": {
        "details": "See {IGovernor-hasVoted}."
      },
      "hashProposal(address[],uint256[],bytes[],bytes32)": {
        "details": "See {IGovernor-hashProposal}. The proposal id is produced by hashing the ABI encoded `targets` array, the `values` array, the `calldatas` array and the descriptionHash (bytes32 which itself is the keccak256 hash of the description string). This proposal id can be produced from the proposal data which is part of the {ProposalCreated} event. It can even be computed in advance, before the proposal is submitted. Note that the chainId and the governor address are not part of the proposal id computation. Consequently, the same proposal (with same operation and same description) will have the same id if submitted on multiple governors across multiple networks. This also means that in order to execute the same operation twice (on the same governor) the proposer will have to change the description in order to avoid proposal id conflicts."
      },
      "lateQuorumVoteExtension()": {
        "details": "Returns the current value of the vote extension parameter: the number of blocks that are required to pass from the time a proposal reaches quorum until its voting period ends."
      },
      "name()": {
        "details": "See {IGovernor-name}."
      },
      "onERC1155BatchReceived(address,address,uint256[],uint256[],bytes)": {
        "details": "See {IERC1155Receiver-onERC1155BatchReceived}."
      },
      "onERC1155Received(address,address,uint256,uint256,bytes)": {
        "details": "See {IERC1155Receiver-onERC1155Received}."
      },
      "onERC721Received(address,address,uint256,bytes)": {
        "details": "See {IERC721Receiver-onERC721Received}."
      },
      "proposalProposer(uint256)": {
        "details": "Returns the account that created a given proposal."
      },
      "proposalSnapshot(uint256)": {
        "details": "See {IGovernor-proposalSnapshot}."
      },
      "proposalThreshold()": {
        "details": "Part of the Governor Bravo's interface: _\"The number of votes required in order for a voter to become a proposer\"_."
      },
      "proposalVotes(uint256)": {
        "details": "Accessor to the internal vote counts."
      },
      "propose(address[],uint256[],bytes[],string)": {
        "details": "See {IGovernor-propose}. This function has opt-in frontrunning protection, described in {_isValidDescriptionForProposer}."
      },
      "quorum(uint256)": {
        "details": "Returns the quorum for a timepoint, in terms of number of votes: `supply * numerator / denominator`."
      },
      "quorumDenominator()": {
        "details": "Returns the quorum denominator. Defaults to 100, but may be overridden."
      },
      "quorumNumerator()": {
        "details": "Returns the current quorum numerator. See {quorumDenominator}."
      },
      "quorumNumerator(uint256)": {
        "details": "Returns the quorum numerator at a specific timepoint. See {quorumDenominator}."
      },
      "relay(address,uint256,bytes)": {
        "details": "Relays a transaction or function call to an arbitrary target. In cases where the governance executor is some contract other than the governor itself, like when using a timelock, this function can be invoked in a governance proposal to recover tokens or Ether that was sent to the governor contract by mistake. Note that if the executor is simply the governor itself, use of `relay` is redundant."
      },
      "setLateQuorumVoteExtension(uint64)": {
        "details": "Changes the {lateQuorumVoteExtension}. This operation can only be performed by the governance executor, generally through a governance proposal. Emits a {LateQuorumVoteExtensionSet} event."
      },
      "state(uint256)": {
        "details": "See {IGovernor-state}."
      },
      "supportsInterface(bytes4)": {
        "details": "See {IERC165-supportsInterface}."
      },
      "updateQuorumNumerator(uint256)": {
        "details": "Changes the quorum numerator. Emits a {QuorumNumeratorUpdated} event. Requirements: - Must be called through a governance proposal. - New numerator must be smaller or equal to the denominator."
      },
      "version()": {
        "details": "See {IGovernor-version}."
      },
      "votingDelay()": {
        "details": "Delay, between the proposal is created and the vote starts. The unit this duration is expressed in depends on the clock (see EIP-6372) this contract uses. This can be increased to leave time for users to buy voting power, or delegate it, before the voting of a proposal starts."
      },
      "votingPeriod()": {
        "details": "Delay between the vote start and vote end. The unit this duration is expressed in depends on the clock (see EIP-6372) this contract uses. NOTE: The {votingDelay} can delay the start of the vote. This must be considered when setting the voting duration compared to the voting delay."
      }
    },
    "version": 1
  },
  "userdoc": {
    "kind": "user",
    "methods": {
      "votingDelay()": {
        "notice": "module:user-config"
      },
      "votingPeriod()": {
        "notice": "module:user-config"
      }
    },
    "version": 1
  }
}